:100000000040002065010000F1030000F50300003E
:1000100000000000000000000000000000000000E0
:10002000000000000000000000000000F9030000D4
:100030000000000000000000FD03000001040000BB
:10004000090400000D040000110400001504000064
:100050001904000000000000000000001D04000062
:100060002104000025040000290400002D040000E4
:100070003104000035040000390400003D04000094
:100080004104000045040000490400004D04000044
:100090005104000055040000590400005D040000F4
:1000A000610400006504000070B582B0224B234A51
:1000B000002101E0196004339342FBD3204B214A15
:1000C000214903E010681860043304328B42F9D3ED
:1000D00000F0CEF901A8694600F0FCF91B4B1C4D5D
:1000E000ED1AAD1000241E1C03E0A3009B59984795
:1000F0000134A542F9DC174B174DED1AAD10002461
:100100001E1C03E0A3009B5998470134A542F9DC6B
:100110000198009900F0C2F8061C104B104CE41A2C
:10012000A4101D1C03E0013CA3005B599847002C60
:10013000F9DC301C00F098F970000020C4080020A1
:1001400000000020C0430000700000207C0100007F
:100150007C0100007C0100007C0100007C010000AB
:100160007C010000A0E7C046FEE7C046FEE7C046AF
:0C017000FEE7C046FEE7C046FEE7C046C2
:1001800010B584B0684601F00FF9054C201C694693
:1001900001F0BEF8201C012101F014F904B010BDDB
:1001A00000D0004070B590B0364C08A8211C062243
:1001B00002F0E2FF211C083107A8042202F0DCFF54
:1001C000211C0C3106A8042202F0D6FF211C10319C
:1001D00005A8042202F0D0FF211C143104A8042237
:1001E00002F0CAFF0AAC201C08A9062202F0C4FFD4
:1001F00068462E3007A9042202F0BEFF684636305A
:1002000006A9042202F0B8FF6846323005A904228C
:1002100002F0B2FF68463A3004A9042202F0ACFFB3
:100220000020211C00F054FD21786278A378E67844
:1002300025796079009601950290134802F0AEFF8F
:10024000A179E279237A607A0090104802F0A6FF43
:10025000A17BE27B237C607C00900D4802F09EFF36
:10026000A17AE27A237B607B00900A4802F096FF35
:10027000A17CE27C237D607D0090074802F08EFF28
:1002800010B070BD404000005840000080400000A9
:1002900094400000A8400000BC40000038B501F0C8
:1002A00033F901F007F9FA21890001F041F9013829
:1002B000294B98420DD8294B5860294A106A0002F0
:1002C000000AC02109060143116200229A60072238
:1002D0001A6001F0EFF8234901F02AF9224B186067
:1002E000FFF74EFF214801210022002302F056FFB4
:1002F00001F0E6F8011C1E4802F050FF01F0DAF8A8
:10030000011C1C4802F04AFF8620C005802109021A
:100310008022D20100F0BEFF012801D1164900E081
:100320001649174802F03AFF00F0E4FF012801D116
:10033000144900E01449154802F030FFFFF732FF7E
:10034000134802F0A7FF134D134C0020291C221C58
:1003500000F0E8FCF9E7C046FFFFFF0010E000E016
:1003600000ED00E01027000000200046E8400000FB
:100370002041000034410000D0400000D84000007F
:1003800048410000E0400000E44000005841000007
:1003900064410000C000002088130000044B1B686B
:1003A000002B03D0024B1A68013A1A607047C0460E
:1003B0007000002038B5041C0D1C01F015F808224F
:1003C000A3691A42FCD1281C38BDC046F8B50F1CE1
:1003D000151C0024054E04E0395D301CFFF7EAFFD0
:1003E0000134A542F8D8281CF8BDC04600D0004012
:1003F0007047C0467047C0467047C0467047C04609
:1004000008B5FFF7CBFF08BD7047C0467047C04630
:100410007047C0467047C0467047C0467047C046E8
:100420007047C0467047C0467047C0467047C046D8
:100430007047C0467047C0467047C0467047C046C8
:100440007047C0467047C0467047C0467047C046B8
:100450007047C0467047C0467047C0467047C046A8
:100460007047C0467047C04608B500F005F8C04662
:1004700008B501F049F808BDBFF34F8F024A034B9E
:10048000DA60BFF34F8FFEE70400FA0500ED00E0ED
:1004900008B50D4B1B68002B02D10C4A0A4B1A60A1
:1004A000094B1B680330032290431818084A9042F6
:1004B00006D902F05BFE0C2303600120404202E0FB
:1004C000014A1060181C08BD74000020C4080020F8
:1004D0000037002001230360014B0B607047C046CA
:1004E0000000002008B502F041FE582303600120FF
:1004F000404208BD08B502F039FE582303600120D0
:10050000404208BD08B502F031FE582303600020C8
:1005100008BDC04608B502F029FE5823036001203B
:10052000404208BD08B502F021FE582303600120B7
:10053000404208BD70B5051E082D26D88604144B10
:10054000F418201C102100F05FFF201C00F058FF61
:100550000028FAD10F4BF0181F2100F055FF0121A0
:10056000A9400D4B1A888A431A806A0000210B4B60
:10057000D1520B4B00225A550A4BF418201C00F0A4
:100580003FFF0028FAD1012000E0FF2040B270BDFB
:1005900010000146280001467E000020880000204F
:1005A0008000002030000146F0B5474680B4051CAD
:1005B0000E1C141C1F1C082861D8002961D00229B8
:1005C00001D904295DD106233B425CD1002F0DD017
:1005D000012E02D0022E04D008E021233B4205D197
:1005E00053E0BA0602D57BB2002B50DA281CFFF785
:1005F000A1FFAB049846284A101C40440F23391C25
:100600009943314300F000FF002C0AD1234A14889B
:10061000631C9BB21380224A934202D1214A1F4B92
:100620001A80214A131C43441C60204B1C1C444468
:10063000201C012100F0E8FE201C00F0E1FE002853
:10064000FAD101231F40AF40194B1A8817431F806E
:100650000121A940174B1A888A431A806B00002198
:10066000154A9952154B00225A55154A141C4444F8
:10067000201C00F0C5FE0028FAD0E8B208E0FF20F8
:1006800006E0FB2004E0FA2002E0FA2000E0FA2075
:1006900040B204BC9046F0BD0000014608000020B6
:1006A000F0FF000000C0FFFF1401014610000146EA
:1006B0007C0000207E0000208800002080000020B8
:1006C0003000014670B5051E082D27D88404174B4D
:1006D000E01800F095FE0F231840012820D1144B9C
:1006E000E618301C00F08CFE13281BD1114BE418C7
:1006F000201C022100F088FE201C00F081FE002852
:10070000FAD104E0281CFFF715FFFC200BE0301C99
:1007100000F076FE1428F5D1012004E0FF2002E06D
:10072000FB2000E0FD2040B270BDC0460000014645
:100730003000014610000146F8B5071E082F37D8D3
:1007400086041E4BF01800F05BFE0F2318400128B2
:1007500030D11B4BF418201C082100F055FE201C42
:1007600000F04EFE0028FAD10123181CB840154AAB
:10077000118881431180144A12883A4100201342A3
:100780000AD018E0301C00F03BFE054209D0381CAE
:10079000FFF7D0FEF3200EE00C4BF4180C4BF618CC
:1007A0000825201C00F02CFE0028EBD1012002E0DF
:1007B000FF2000E0FB2040B2F8BDC046000001462B
:1007C000100001467E0000207C0000203000014621
:1007D00020000146F0B55F4656464D464446F0B40B
:1007E00083B083460191141C082800D981E05F463C
:1007F000BA040092494BD01800F002FE0F231840B3
:10080000012879D1002C7AD0009A454BD618301C9B
:1008100000F0F6FD172801D01C2873D1414B1B882E
:100820005A461341DA071ED5009B3F4A981800F03C
:10083000E7FD031CC2060DD5009B3C4A9818102109
:1008400000F0E2FD01215B469940364B1A888A434D
:100850001A8008E000201A0758D55846FFF76AFEAC
:100860000D20404252E0009B314A981800F0C8FD2C
:100870008502ADB2AC4200D8251C009B98462D4B9A
:1008800098442D4A92460123994642461468A4B2E0
:10089000301C00F0B5FD172807D01C2805D058469D
:1008A000FFF748FE0720404230E0524613883B41A4
:1008B0004A461A4201D0A54227D8A542E5D8584653
:1008C00001992A1C00F0BEFD009B1C4A9C18201CAC
:1008D000202100F099FD201C00F092FD0028FAD1A3
:1008E00001215B4699400F4B1A880A431A80281C45
:1008F0000CE00120404209E00520404206E00E20C5
:10090000404203E00720404200E0002003B03CBC2E
:1009100090469946A246AB46F0BDC046000001464F
:10092000300001467E0000202000014628000146DC
:1009300000020146040201467C000020100001462E
:10094000F0B55F4656464D464446F0B483B0834604
:100950000191141C082860D8D9468504374AA81884
:1009600000F04EFD0F231840012859D1002C5AD019
:10097000334BE81800F044FD800280B20090A042A2
:1009800000D300942F4A521990462F4BEF182F4A4C
:10099000924643461C68A4B2381C00F031FD17286B
:1009A0001BD01C2813D1002C21D1294AAB181E685A
:1009B0003604360C274BE81800F022FD80028642F0
:1009C0000BD15846FFF7B6FD072040422FE05846AE
:1009D000FFF7B0FD0720404229E0524613884A46FF
:1009E0001341DA0701D5002C20D0002CD1D0009B78
:1009F000A34200D81C1C58460199221C00F03EFD61
:100A0000154AAD18281C402100F0FEFC281C00F0FF
:100A1000F7FC0028FAD1201C09E00120404206E042
:100A20000520404203E00E20404200E0002003B0D9
:100A30003CBC90469946A246AB46F0BD000001463C
:100A40002002014624020146300001467C000020BD
:100A500004020146000201461000014610B5041CC4
:100A600001782A4800F0D0FC6178294800F0CCFCDD
:100A7000A178284800F0C8FCE178274800F0C4FCC1
:100A80002179264800F0C0FC6179254800F0BCFCC3
:100A9000A17B244800F0B8FCE17B234800F0B4FCC3
:100AA000217C224800F0B0FC617C214800F0ACFCC5
:100AB000A17A204800F0A8FCE17A1F4800F0A4FCCD
:100AC000217B1E4800F0A0FC617B1D4800F09CFCCF
:100AD000A1791C4800F098FCE1791B4800F094FCD7
:100AE000217A1A4800F090FC617A194800F08CFCD9
:100AF000A27C184B1A70E27C5A70227D9A70627D3B
:100B0000DA70A27D144B1A7010BDC0460360004617
:100B10000260004601600046006000460760004633
:100B2000066000460B6000460A6000460960004609
:100B3000086000460F6000460E6000460D600046EB
:100B40000C600046136000461260004611600046CB
:100B5000106000469C0000209800002010B5041C86
:100B60002A4800F04DFC2070294800F049FC6070D4
:100B7000284800F045FCA070274800F041FCE070D8
:100B8000264800F03DFC2071254800F039FC6071DA
:100B9000244800F035FCA073234800F031FCE073DA
:100BA000224800F02DFC2074214800F029FC6074DC
:100BB000204800F025FCA0721F4800F021FCE072E4
:100BC0001E4800F01DFC20731D4800F019FC6073E6
:100BD0001C4800F015FCA0711B4800F011FCE071EE
:100BE0001A4800F00DFC2072194800F009FC6072F0
:100BF000184B1A78A2745A78E2749A782275DB78C6
:100C00006375154B1B78A37510BDC0460360004685
:100C10000260004601600046006000460760004632
:100C2000066000460B6000460A6000460960004608
:100C3000086000460F6000460E6000460D600046EA
:100C40000C600046136000461260004611600046CA
:100C5000106000469C0000209800002038B5041C5D
:100C60003823021C9A430AD1064D281C00F0C8FB09
:100C70000443E1B2281C00F0C7FB002000E0FF2085
:100C800040B238BD0023004608B5024800F0B8FB6A
:100C900008BDC0460023004610B5041C0178034877
:100CA00000F0B2FB6288024B1A6010BD446000463F
:100CB0004060004610B5041C034800F0A1FB207002
:100CC000024B1B68638010BD4460004640600046D4
:100CD00010B50C1C052820D88000114B1B589F46CE
:100CE000081CFFF7BBFE002018E0081CFFF736FFCA
:100CF000002013E00878FFF7B1FF0FE0FFF7C4FF13
:100D0000207000200AE0081CFFF7C6FF002005E065
:100D1000081CFFF7CFFF002000E0FF2040B210BD0D
:100D200078410000F0B54F464646C0B485B0051C7A
:100D30008846171C8404454AA01800F061FB13285C
:100D40006AD002D8002870D07AE0172802D01C2878
:100D500056D075E03E4BE01800F052FBC20726D596
:100D60003C4BE01800F04CFB071C3B4AA01800F07D
:100D700047FB061C394BE01800F042FB8146384A1D
:100D8000A01800F03DFB374AA3181B684A460092A2
:100D900001901B041B0C02933348291C3A1C331C82
:100DA00002F0FCF9314BE018012100F02DFB304A34
:100DB000A4182768BFB20120002F42D080231B0156
:100DC0009F4200D91F1C281C41463A1CFFF7B8FD62
:100DD000002836DD00240FE0434619193A1B92B271
:100DE000281CFFF7F7FC061E04DA281CFFF7A2FBFD
:100DF000301C26E02418A4B2A742EDD1012020E047
:100E0000281CFFF799FC031C012B1AD11948291C37
:100E100002F0C4F9012014E01748291C3A1C02F022
:100E2000BDF9281CFFF74EFC0BE0281C01213A1CE1
:100E30000023FFF7B9FB031C9D4202D1012000E013
:100E4000012005B00CBC90469946F0BD300001462B
:100E500020000146270101462601014625010146E1
:100E6000240101462001014690410000280001466E
:100E700024020146B4410000C8410000002803D00C
:100E80000122044BDA6103E002225242014BDA6193
:100E90007047C04600100041022804D1022252428D
:100EA000034B1A6202E00122014B1A627047C046EE
:100EB000001000410368081C1840431E9841704709
:100EC000CBB20133FF339B0019500B0A80229200F2
:100ED0009B189B0019507047CAB2CB430132FF32B6
:100EE00092001350090A80229200891889000B5041
:100EF0007047C0468423DB05984203D189000B4B21
:100F0000CA5012E08623DB05984203D18900084BC2
:100F1000CA500AE08823DB05984203D18900054BBB
:100F2000CA5002E08900044BCA50704700200041BB
:100F30004020004180200041C02000418423DB0587
:100F4000984203D189000B4BCA5012E08623DB057F
:100F5000984203D18900084BCA500AE08823DB0578
:100F6000984203D18900054BCA5002E08900044B26
:100F7000CA5070470030004140300041803000418D
:100F8000C03000418423DB05984204D189000D4B19
:100F9000C858C0B215E08623DB05984204D1890009
:100FA000094BC858C0B20CE08823DB05984204D135
:100FB0008900064BC858C0B203E08900044BC858EA
:100FC000C0B27047003000414030004180300041E5
:100FD000C0300041F8B55F4656464D464446F0B431
:100FE000061C0D1C8A23DB05984202D0102188467E
:100FF00001E0052290460024012703239A4657E08A
:101000003B1CA3402A681A409A4250D12A79012AEF
:1010100003D132691343336100E07361A1B28946A1
:10102000301CFFF7AFFFAB6851461940032903D1CD
:1010300052469043C2B212E01F4205D05146884347
:10104000C2B201210A430AE09A0705D551468843F6
:10105000C2B202210A4302E052469043C2B20421C6
:10106000194201D00A4301E004218A43190702D53D
:1010700008210A4301E008218A43990602D520216C
:101080000A4301E020218A43590603D540231A432D
:10109000934602E040239A4393462A7B301C4946FC
:1010A000FFF728FF301C49465A46FFF747FF013437
:1010B0004445A5D33CBC90469946A246AB46F8BDF4
:1010C00082B00190002301E0C0460133019A9342AF
:1010D000FAD302B07047C046F0B557464E46454673
:1010E000E0B40C1C20256D1AA840051C164B99462F
:1010F000164B9846CA4620E0002D06DA134B198895
:1011000053461868FFF7DCFE05E0434619884B4656
:101110001868FFF7E1FE0A20FFF7D2FF0A4F0C4ED6
:1011200031883868FFF7CCFE0A20FFF7C9FF38681E
:101130003188FFF7D1FE6D00013C002CDCD11CBCD6
:1011400090469946A246F0BDAC000020A0000020C9
:10115000A800002038B50C4C23680C4A12885A614C
:101160000A20FFF7ADFF0A4D29882068FFF7A8FE87
:101170000A20FFF7A5FF20682988FFF7ADFE0A20A7
:10118000FFF79EFF38BDC046AC000020A000002045
:10119000A800002038B50A4D28680A4B1B88036157
:1011A000094C2188FFF78CFE0A20FFF789FF286889
:1011B0002188FFF791FE0A20FFF782FF38BDC04665
:1011C000AC000020A0000020A8000020F0B5474699
:1011D00080B400200024104D104E114B984615E0AD
:1011E000470031882868FFF76BFE0A20FFF768FF89
:1011F00031882868FFF770FE0A20FFF761FF434639
:1012000019882868FFF756FE384301340F2CE7D9B8
:1012100004BC9046F0BDC046AC000020A8000020F1
:10122000A000002038B5051C0C1C012040422021E4
:10123000FFF752FF06200421FFF74EFF281C05216F
:10124000FFF74AFF201C0521FFF746FFFFF782FF4B
:10125000FFF7BCFF041CFFF79DFF201C38BDC046F4
:1012600070B50024094E0DE0201C0121FFF7DAFFC4
:10127000002805D0B04203D0054B1C60012004E0DB
:101280000134E4B2072CEFD9002070BDFFFF00004D
:10129000A4000020F0B585B0124D2860124F3980AF
:1012A000124E3280124B009301246A46147164235B
:1012B0000293002313738620C0056946FFF78AFE58
:1012C0003A883388134300936B461C7102230293C0
:1012D0006A46147328686946FFF77CFEFFF7C0FF73
:1012E00005B0F0BDAC000020A8000020A000002048
:1012F000103C000008B5044B18680121FFF792FF6D
:101300004007C00F08BDC046A40000200000000038
:10131000F8B5041C0D1C036B01229343036300F01A
:10132000C9F8AA235B001E4AD358D84000F068FDD4
:10133000061C2B68180100F063FD011C301C00F036
:101340007FF9071C00F044F9061C00F059FD011C50
:10135000381C00F0C5FB8521C90500F097FA01F0A3
:1013600019FC0E4B0C4A00F09BFD00F049F9666237
:10137000A062E26AEE239A43A888EB882989034396
:101380000B431343E362226B064B1A406989AB8916
:101390000B4313432363F8BD000000000000E03F4F
:1013A00000100041FE3CFFFFE1235B02036060236D
:1013B00083800023C3800381C02292004281838105
:1013C0007047C046002904D0026B01231343036316
:1013D00003E0036B01229343036370478369081C96
:1013E0001840431E9841704738B5041C0D1C201C42
:1013F0002021FFF7F3FF0128F9D0256038BDC04652
:101400000078C0B27047C0460170704730B5002404
:1014100007E065182D042D0C2D182D781555013475
:10142000A4B29C42F5D330BD70B5002407E0651826
:101430002D042D0C2D18165D2E700134A4B29C4283
:10144000F5D370BD70B50B1C141E11D08504094A6C
:10145000AD182E683604360C072210408004064A68
:101460001043311C1A1C231CFFF7DEFFA4192C604B
:1014700070BDC0460C0201460000024670B50B1C50
:10148000141E11D08504094AAD182E683604360C96
:10149000072210408004064A1043311C1A1C231CEA
:1014A000FFF7B4FFA4192C6070BDC04628020146A6
:1014B00000000346014B18687047C046B00000208A
:1014C000014B18687047C046B4000020024B034A25
:1014D0001360034A1360704700127A00B4000020C2
:1014E000B000002008B50220FFF7D6FC0120FFF76E
:1014F000C5FC034A034B5A61FFF7E8FF08BDC0462D
:10150000000102000010004108B5054B1A68054BA8
:101510001A60054B1A68054B1A60FFF7E3FF08BD18
:10152000B8FD030010120041BCFD0300041000418F
:10153000002934D00123002210B488422CD3012486
:101540002407A14204D2814202D209011B01F8E71B
:10155000E400A14204D2814202D249005B00F8E7D4
:10156000884201D3401A1A434C08A04202D3001B00
:101570005C0822438C08A04202D3001B9C08224333
:10158000CC08A04202D3001BDC082243002803D071
:101590001B0901D00909E3E7101C10BC70470028A3
:1015A00001D00020C04307B4024802A140180290B5
:1015B00003BDC046190000000029F0D003B5FFF7B5
:1015C000B9FF0EBC4243891A1847C0467047C0464F
:1015D0009E2110B5C905041C01F09CFB002803D115
:1015E000201C00F0EDFB10BD9E21C905201C00F061
:1015F00077FA00F0E5FB80231B06C018F3E7C0462E
:1016000038B50E4B0C4A041C0D1C01F049FB002898
:1016100004D1201C291C01F089FA38BD074B064A69
:10162000201C291C00F058FF01F080FA80231B06C3
:10163000C018F2E7C046C046000000000000E041CC
:10164000F0B55F4656464D464446F0B44602450066
:10165000C00F85B00F1C760A2D0E804641D0FF2D9D
:1016600026D08024240400212643F6007F3D8946AD
:101670008B46F90F7C027800640A000E00918A46BE
:101680003CD0FF2834D080231B041C430023E400FB
:101690007F380193009F4346019A7B4049469C4610
:1016A00011430F2900D971E0764F89007F58BF465A
:1016B000002E3ED10822022391469B46D9E75A4686
:1016C000341CC24601920199022937D0032900D166
:1016D000CFE0012900D0ABE053460B4000220026AA
:1016E00032E0002E19D10421012289469346C0E739
:1016F000221C531E9A4102320192CBE70127019727
:10170000002CC7D0201C01F00FFB431F9C40762308
:101710005B420021181A0191BCE7301C01F004FB68
:101720007625431F9E406D4200232D1A99469B4605
:101730009FE70C23032199468B469AE7D446012361
:1017400067463B40FF2200267602D205700ADB077F
:101750001043184305B03CBC90469946A246AB46A0
:10176000F0BD80260023F603FF22EDE700220026CD
:10177000EAE78020C00306423BD0044239D1061C70
:1017800026437602760A009BFF22DDE7281A0390A3
:1017900076016401A64239D3361B1A2201230120A7
:1017A000311C5B007600002901DBB44201D8361BF6
:1017B0000343013A002AF3DC741EA641341C1C4387
:1017C000039A7F32002A27DD630704D00F232340CA
:1017D000042B00D00434270103D52B4B039A1C4063
:1017E0008032FE2A0BDD012361460B40FF220026DA
:1017F000AAE706437602760A4346FF22A4E7A4013D
:1018000001236746660AD2B23B409DE7039F1B2235
:10181000013F03970023C2E77E23039F5B42DB1B4C
:101820001B2B07DD012361460B40002200268BE7BE
:10183000D446C5E7221CDA40039B9E339C40231C00
:101840005C1EA34113435A0704D00F221A40042AF6
:1018500000D004335F0105D5012361460B4001220E
:10186000002671E79E01624601231340760A00229A
:101870006AE78026F60326437602760A5346FF225D
:1018800062E7C046A4420000FFFFFFF7F0B55F46E5
:1018900056464D464446F0B44402460083B00F1C01
:1018A000640A360EC50F002E41D0FF2E22D08023B1
:1018B0001B0400201C43E4007F3E82468046391C06
:1018C0004B007F02C90F7F0A1B0E8B463BD0FF2BBC
:1018D00034D0802212041743FF007F3B00215A4678
:1018E0006A40019252460A430F2A63D87A4892000E
:1018F00082589746002C3FD10822022392469846F0
:10190000DDE70195404602282AD1019A01251540BC
:10191000FF2300246402DB05600AED071843284317
:1019200003B03CBC90469946A246AB46F0BD002CA5
:1019300027D10420012282469046C0E7391C4A1E66
:1019400091410231CBE70121002FC8D0381C01F0B2
:10195000EBF9431F9F4076235B421B1A0021BEE731
:10196000032800D1AEE001284FD101984246104033
:10197000C5B200230024CDE70C2303209A468046FD
:101980009DE7201C01F0D0F97626431F9C4076424B
:101990000023361A9A46984691E780240025E403EE
:1019A000FF23B7E75B463C1C01938846AAE73C1C33
:1019B0008846A7E7250C24043A0C240C3F04F618AB
:1019C0003F0C211C231C794353436F435543FB18A1
:1019D0000A0C9B18B1469F4202D980225202AD18D0
:1019E00009041A04090C521894011B0C611E8C4145
:1019F000920EED181443AD012C43230105D50122AD
:101A000063080120144081441C434B467F33002B64
:101A10002DDD600704D00F222240042A00D00434B8
:101A2000220103D52D4B1C404B468033FE2B17DD86
:101A3000019B01251D400024FF236BE78020C0038C
:101A4000044208D0074206D1041C3C436402640AE5
:101A50005D46FF235EE704436402640AFF2359E7FF
:101A60000198A4010125640ADBB2054052E77E23F8
:101A70005B424A469B1A1B2B05DD019B01251D403D
:101A80000024002346E7221CDA404B469E339C404C
:101A9000231C5C1EA3411343580704D00F221A4095
:101AA000042A00D004335A0105D5019B01251D40AD
:101AB000002401232EE701989C010125640A0540BA
:101AC000002327E78027FF03019B3C436402012595
:101AD0001D40640AFF231DE7E4420000FFFFFFF7FB
:101AE000F8B5C20F430244004D024800240E161CF4
:101AF0009B09000EC90FAD09FF2800D17EE0012728
:101B000079408A4258D0221A002A00DC89E0002855
:101B10001BD1002D00D075E0580704D00F221A40C9
:101B2000042A00D00433590138D50134FF2C00D1E8
:101B300083E09B0101225B0AE0B232405B02C405F4
:101B4000580AD20720431043F8BDFF2CE4D080216F
:101B5000C9040D431B2A00DD2DE1291C2020D140A2
:101B6000821A95406A1E95410D435B1B5801D3D5DF
:101B70009B019F09381C01F0D7F8421F97409442FF
:101B800060DC141B1F231B1B3A1C9F40611C3B1C69
:101B9000CA405F1EBB4113430024BDE70122DB089E
:101BA000E0B23240FF2C04D1002B7ED08021C9034B
:101BB0000B435B025B0AC1E7211A002946DD0028BE
:101BC00026D0FF2CA8D08020C00405431B2900DDAF
:101BD000EFE0281C2027C840791A8D40691E8D41EE
:101BE00005435B19590197D50134FF2C5CD073492B
:101BF00001221A400B405B0813438DE7002D00D0F3
:101C00007FE77CE7013A002AAFD0FF2CA2D183E71F
:101C1000002D00D180E701390029E2D0FF2CD5D179
:101C20007AE7002A1ED1621CD2B2012A4EDD5F1B68
:101C30007A0126D5EF1A0E1C9CE701223240FF20C4
:101C400000237BE75D4BA41A3B4065E7002946D1A2
:101C5000611CC8B201282ADDFF2925D0EB185B08DA
:101C60000C1C59E7002C13D0FF2818D08024E40462
:101C7000524223431B2A4DDD0123EB1A041C0E1C88
:101C800074E7002F00D075E700220020002390E7C2
:101C9000002B3BD0D243002AEFD0FF28EAD12B1CE7
:101CA000FF240E1C38E70022FF20002346E7002C0B
:101CB0005AD1002B77D0002D00D12DE75B195801A8
:101CC00000D429E73D4A0124134025E7002C15D113
:101CD000002B2FD1002DD7D02B1C0E1C1CE7002C65
:101CE00021D1002B53D0C943002904D0FF284BD069
:101CF0001B294FDD01235B19041C73E7002B22D144
:101D0000002DD0D02B1C0E1CFF2405E72B1C041C1F
:101D10000E1C01E71C1C2026D440B21A93405A1E08
:101D200093412343A9E7FF282ED08024E4044942AD
:101D30002343DDE7002D00D1EEE65A1B500134D5D8
:101D4000EB1A0E1CE8E6FF24002D00D1E4E6802209
:101D5000DB08D203134204D0ED08154201D12B1C3D
:101D60000E1CDB00FF24D7E6002B0DD0FF24002D36
:101D700000D1D1E68022DB08D2031342F1D0ED0876
:101D80001542EED12B1CECE72B1CFF24C4E62B1CC8
:101D9000041CC1E61C1C2027CC40791A8B40591E1C
:101DA0008B412343A7E72B1CB6E6131E00D0B3E6F6
:101DB0006AE7012515E70125D7E6C046FFFFFFFBCF
:101DC0004302590A4300C20F1B0E00207E2B0DDD7B
:101DD0009D2B0CDC802000040143952B0ADC96200F
:101DE000C31AD9404842002A00D1081C7047034B4F
:101DF000D018FBE7963B9940F4E7C046FFFFFF7F12
:101E000010B5041E33D000F08FFF9E231B1A962BB3
:101E100009DC083884406402640ADBB26402DB0532
:101E2000600A184310BD992B0ADD0522121A211CE5
:101E3000D1400A1C011C1B318C40611E8C41144393
:101E4000052801DD421F9440144A2240610704D056
:101E50000F210C40042C00D0043251010AD59F23DD
:101E6000181AFF2816D09401640AC3B2D6E70023DB
:101E70000024D3E7D208FF2B03D05402640ADBB25C
:101E8000CCE7002A06D08024E40314436402640AE9
:101E9000FF23C3E7FF230024C0E7C046FFFFFFFB8B
:101EA000F8B55F46564644464D46F0B40C034D0027
:101EB000CE0F610A440F2143C40018038046580026
:101EC000400D8246D80F84464046400A530F0343D4
:101ED000D0006D0D371C83465246664500D19DE00B
:101EE000AF1A002F00DC03E1002A38D1184300D0DC
:101EF000E4E0630709D00F232340042B05D0231D02
:101F0000A342A441644209191C1C080200D478E0D1
:101F1000CE4B6A1C9A4200D105E1CD4BE408194032
:101F200048075205490204430B0B520D371C002091
:101F300000211B03201C1C0B0B0D1B05C54D23434F
:101F4000520552081D4015436D006D08FF07291CFE
:101F500039433CBC90469946A246AB46F8BDBB48C7
:101F60008542C6D0802000040343382F00DDECE01A
:101F70001F2F00DD20E12020C01B1A1C814682405B
:101F80005846F8400243944658464A469040421EFE
:101F90009041FB40624602431F1CA21A9442A44196
:101FA0006442C91B091B141C0B02A2D549024F0A2B
:101FB000002F00D1C4E0381C00F0B6FE021C083A25
:101FC0001F2A00DDB7E02821091A201C9740C840CD
:101FD00007439440954200DDA9E0551B691C1F2969
:101FE00000DDD8E01F22551B3B1C221CAB40CA4021
:101FF000AC40651EAC411343CF401C43391C002547
:1020000077E74807E4086A05C908520D371C0443FE
:102010008E4B9D4248D009030B0B88E7AA1A9446C1
:10202000002A00DC98E05046002853D087488542BB
:1020300000D15EE78020000403436246382A00DDB9
:10204000FDE01F2A00DD4BE120226046101A1A1C19
:1020500082408246914658466246D0404A460243F4
:102060009046584652469040421E90414246024396
:102070006046C3401219A242A4416442591809198A
:10208000141C080200D434E7704B01359D4200D186
:1020900024E16F4B60081940012323401C1C0443BA
:1020A000CB071C43490824E70B1C234300D1C7E19D
:1020B00080231B030B431B031B0B38E7013F002F3F
:1020C00064D15846221A9442A4416442C91A091B99
:1020D000141C69E75846184300D10AE7012252420E
:1020E00094446046002800D0C5E058460219C2E773
:1020F000002F72D1681C4005400D012800DCDEE095
:102100005A46A21A9442BF41C81A7F42C71B3802DE
:1021100000D488E05A46141BA3459241591A5242F2
:102120008F1A664644E7371C00230024FFE648491F
:10213000AD1A3940DDE6271C28388740002449E7DE
:10214000201C00F0F1FD203038E75A461A43531E98
:102150009A41D2B2002720E7002A00D0DDE0681CB7
:102160004205520D012A00DC8EE0384DA84200D114
:10217000B3E05D462A19A242A441644259180919E4
:10218000CC07520814434908051CB2E62F48854283
:1021900000D0EAE6ADE62B1C1F3B3A1CDA40131CCC
:1021A00020296DD03F22551BAF403C43601E844127
:1021B0001C43002100259CE6381C20381A1CC24014
:1021C000101C202F5ED04022D71BBB405A461A431A
:1021D000531E9A4102430027DFE6002D3CD01B4DE1
:1021E000AA4500D194E080252D047F422943382F51
:1021F00000DDADE01F2F00DD2CE12025ED1B081CCC
:10220000261CA840FE40AC400643651EAC4134434A
:10221000F9405D462C1BA34592415B1A5242991A24
:1022200055466646C0E6131C3B43141C002B00D0E9
:10223000BEE600270022002500210024E8E65A46D9
:102240001A43531E9A41D2B2002313E7FF0700003E
:10225000FFFF7FFFFFFF0F800D1C254358D0FF437A
:10226000002F51D1041BA3459241591A5242891A99
:102270005546664698E69648854200D0DDE638E643
:10228000002792E70023A1E7081C2043002D00D07F
:10229000C0E0002800D1FBE05846184300D128E6F2
:1022A00058460219A242A441644259180919141C43
:1022B0000A0200D41DE6874B0125194019E6081CC7
:1022C0002043002D39D100286DD15946194300D142
:1022D000BDE0191C5C4666460BE6051C2A1CABE7F4
:1022E000604620381A1CC24060469146202800D122
:1022F000ABE04022121A93405A461A43531E9A41A9
:102300004B461A430023B5E6714DAA4500D06EE74F
:10231000191C5C4655466646EBE5002D1ED10D1C8A
:10232000254373D0D543002D6DD15C445C4592416B
:102330005918524289185546A3E6002849D15946F2
:10234000194300D196E0191C5C466646604DD0E505
:102350000C43611E8C41E4B200215AE75C4DAA4552
:1023600054D05542802210040143382D00DD85E011
:102370001F2D00DD95E02022501B0A1C8446824060
:10238000201CE8400243904662469440601E84410F
:1023900042461443E9405C445C459241CB185242AA
:1023A000991855466DE65846184300D1A1E55846A0
:1023B000271ABC429241C81A5242801A02026AD5B8
:1023C0005846041BA3459241591A5242891A66463F
:1023D0008FE55846184336D04807E4080443802068
:1023E000C9080003014208D0DD08054205D159465D
:1023F000CA085C071443291C6646630FC9001943C9
:10240000E400334D75E5324A9245AED1191C5C4665
:1024100055466EE5002837D05846184313D080251E
:102420004807E408C9082D0304432942E5D0D80829
:102430002842E2D15D46EA085C071443011CDCE750
:102440000023002473E5224D53E5002354E70027C1
:102450000022F1E63D1C203D0A1CEA40151C202FFD
:1024600031D04026F71BB9400C43611E8C412C43F0
:102470000021CEE6164A0027151CDDE60C43611E3E
:102480008C41E4B2002186E7191C5C46104D30E512
:10249000191C5C462DE5031C3B43D8D0011C3C1C99
:1024A00027E52020404240190A1CC2409046202DBA
:1024B0000BD04020451BA9400C43611E8C41454672
:1024C0002C43002167E70021CEE70021F4E7C04656
:1024D000FF070000FFFF7FFFF8B55F465646444602
:1024E0004D46F0B40C034D00CF0F610A440F214359
:1024F000C4001803DE0F8046B44646465800760AEC
:10250000530F3343D600C94A6D0DBA46400DB3464A
:10251000904200D1EBE06246012672409446674546
:1025200000D1A1E02F1A002F00DC08E100283BD1E8
:102530005846184300D0E8E0600709D00F23234035
:10254000042B05D0231DA342A441644209191C1C7D
:102550000A0200D479E0B54B6A1C9A4200D109E125
:10256000B34BE408194048070443490252050127C8
:1025700050460B0B520D0740002000211B03201C6E
:102580001C0B0B0D1B05AB4D2343520552081D4080
:1025900015436D006D08FF07291C39433CBC90466C
:1025A0009946A246AB46F8BDA0488542C4D08020DB
:1025B00000040343382F00DDF0E01F2F00DD24E18D
:1025C0002020C01B1A1C5E468240FE4032439446C7
:1025D0005A468240101C421E9041FB406246024314
:1025E0001F1CA21A9442A4416442C91B091B141C5B
:1025F0000A02A1D549024F0A002F00D1C9E0381CB8
:1026000000F092FB021C083A1F2A00DDBCE02821E2
:10261000231C091A9740CB401F439440954200DD8C
:10262000AEE0551B691C1F2900DDDDE01F22551B94
:102630003B1C221CAB40CA40AC40651EAC4113435E
:10264000CF401C43391C002576E74807E4086A059B
:1026500001275646C908520D37400443734B9D422B
:1026600049D009030B0B87E72A1A9446002A00DC9D
:102670009BE0002855D06D48854200D15CE7802062
:10268000000403436046382800DD09E11F2800DD0F
:1026900050E162462020801A1E1C8640B1465E46EC
:1026A000D6404A4632435E4686409046301C421E23
:1026B0009041424602436046C3401219A242A441DF
:1026C000644259180919141C080200D434E7574B06
:1026D00001359D4200D142E1554B6008194001236C
:1026E00023401C1C0443CB071C43490824E71E431A
:1026F00000D014E70FE70B1C234300D1CFE1802368
:102700001B030B431B031B0B36E7013F002F66D156
:102710005E46A21B9442A4416442C91A091B141CC0
:1027200066E75846184300D106E701267642B444CE
:102730006046002800D0CAE05E463219BEE7002F8E
:102740007AD1681C4005400D012800DCE3E05A46C0
:10275000A21A9442BF41C81A7F42C71B3E0200D44E
:1027600092E05846041BA3459241591A52428F1ACF
:10277000E24641E7534601271F4000240023FBE6C1
:102780002B49AD1A3940D7E6271C2838874000244A
:1027900044E7201C00F0C8FA203033E75A461A43B9
:1027A000531E9A41D2B200271BE7002A00D0E1E075
:1027B000681C4605760D012E00DC91E01B4DA842F9
:1027C00000D1F7E05E463219A242A4416442591892
:1027D0000919CC07520814434908051CACE61348F4
:1027E000854200D0E6E6A7E62B1C1F3B3E1CDE40E0
:1027F000331C202970D03F22551BAF403C43601E44
:1028000084411C430021002596E6381C20381E1CFC
:10281000C640301C202F61D04022D71BBB405A46F7
:102820001A43531E9A4102430027DAE6FF070000CD
:10283000FFFF7FFFFFFF0F80002D38D0B94DA8426A
:1028400000D192E080252D047F422943382F00DDFE
:10285000AAE01F2F00DD2CE12025ED1B0E1CAE4051
:10286000B046261CFE404246AC401643651EAC41B5
:102870003443F9405A46141BA34592415B1A524215
:10288000991A051CE246B3E6131C3B43141C002BAB
:1028900000D0B1E600270022002500210024DDE65B
:1028A0005A461A43531E9A41D2B2002305E70D1C23
:1028B00025435AD0FF43002F53D15A46141BA3453A
:1028C0009241591A5242891A051CE24690E69548EF
:1028D000854200D0D6E62FE600278FE700239EE74B
:1028E000081C2043002D00D0C3E0002800D1F6E0F2
:1028F0005846184300D11FE658460219A242A44187
:10290000644259180919141C0A0200D414E6864BB3
:102910000125194010E6081C2043002D3AD100285B
:1029200000D089E05946194300D1BFE0191C5C462C
:10293000E24601E6604620381A1CC2406646101C7A
:10294000202E00D1B0E04022921B93405A461A43F9
:10295000531E9A4102430023AFE6724D00272A1C02
:102960009BE7704DA84200D070E7191C5C46051C1F
:10297000E246E1E5002D20D10D1C254375D0D5435D
:10298000002D6FD15C445C45924159185242891820
:10299000051C99E6002835D159461943DDD0191C8C
:1029A0005C46E2465F4DC7E50C43611E8C41E4B2D4
:1029B00000215FE7051C021C6FE75A4DA84254D066
:1029C0005542802216043143382D00DD81E01F2D51
:1029D00000DD91E02022561B0A1CB446B240261CA2
:1029E000EE403243904662469440661EB4414246F1
:1029F0001443E9405C445C459241CB18524299181B
:102A0000051C61E6584618434CD04807E4080443C7
:102A10008020C9080003014208D0DD08054205D125
:102A20005946CA085C071443291CE246630FC900D3
:102A30001943E4003B4D7FE55846184300D17BE540
:102A40005E46A71BBC429241C81A5242801A060237
:102A50004CD55846041BA3459241591A5242891A33
:102A6000E24669E52F4A9042AED1191C5C46051C2E
:102A700062E5002836D05846184313D08025480711
:102A8000E408C9082D0304432942CFD0D8082842BE
:102A9000CCD15D46EA085C071443011CC6E700235D
:102AA000002469E51F4D47E500234FE7002700227A
:102AB000F3E63D1C203D0E1CEE40351C202F2DD092
:102AC0004026F71BB9400C43611E8C412C4300216A
:102AD000D0E60C43611E8C41E4B200218AE7191C48
:102AE0005C4629E5191C5C460E4D25E5031C3B435D
:102AF000DCD0011C3C1C1FE52026764276190A1CFE
:102B0000F2409046202D0BD04026751BA9400C4367
:102B1000611E8C4145462C4300216BE70021D2E722
:102B20000021F4E7FF070000FFFF7FFF70B50B1CDB
:102B3000124C09030E0B5900021C490DDD0F002039
:102B4000A14211DD0E4881420FDC80204003064384
:102B50000C48401A1F280BDD0B4A521AD640321C73
:102B60005042002D00D1101C70BD084BE818FBE747
:102B7000074BC240C9188E403243F1E7FE03000004
:102B80001D0400003304000013040000FFFFFF7F5A
:102B9000EDFBFFFF43001B0E5A1C4102D2B270B581
:102BA0004C0AC50F012A17DDE02292006407090BC9
:102BB0009818002200231E0D221C34050C431B49CB
:102BC000400540082140014349004908ED070B1C1E
:102BD0002B43101C191C70BD002B15D1002C1CD0D0
:102BE000201C00F0A1F80A281ADC0B21091A231C6A
:102BF000CB40191C031C15339C400D4B0903181ABC
:102C00004005090B400DD4E7002C03D06407090BE5
:102C10000848CEE707480021CBE700200021C8E79D
:102C2000011C0B398C40211C0024E6E7FFFF0F80BC
:102C300089030000FF0700008446101C62468C4692
:102C4000191C634600E0C0461FB500F011FA0028C9
:102C500001D40021C8421FBD10B500F041F9404227
:102C6000013010BD10B500F003FA002801DB002090
:102C700010BD012010BDC04610B500F0F9F90028C4
:102C800001DD002010BD012010BDC04610B500F0D0
:102C900071F9002801DC002010BD012010BDC046E4
:102CA00010B500F067F9002801DA002010BD0120FE
:102CB00010BDC0468446081C6146FFE71FB500F002
:102CC000C3F8002801D40021C8421FBD10B500F090
:102CD00049F84042013010BD10B500F0B5F80028A9
:102CE00001DB002010BD012010BDC04610B500F072
:102CF000ABF8002801DD002010BD012010BDC0464A
:102D000010B500F059F8002801DC002010BD0120AA
:102D100010BDC04610B500F04FF8002801DA0020C1
:102D200010BD012010BDC0461C2101231B04984288
:102D300001D3000C10391B0A984201D3000A08394C
:102D40001B09984201D30009043902A2105C401803
:102D50007047C046040302020101010100000000A7
:102D6000000000004A02430270B55C0A550A4300A5
:102D70004A001B0EC60F120EC90FFF2B05D0FF2AEB
:102D800008D0012093420BD070BD0120002CFBD154
:102D9000FF2AF6D10120002DF6D101209342F3D174
:102DA000AC42F1D18E4205D0002BEDD1201C441E47
:102DB000A041E9E70020E7E74A024302F0B55C0AD8
:102DC000550A43004A001B0EC60F120EC90FFF2BF7
:102DD00031D0FF2A34D0002B16D1604260418446A6
:102DE000002A14D0002820D18E4217D1934215DC3E
:102DF00004DBAC4212D80020AC4212D270427041C7
:102E00004042012318430CE0002AEDD194466F4262
:102E10006F416046002805D1002FE5D070420123A4
:102E20001843F0BD0020002FFBD1484248414042EA
:102E300001231843F5E7002CCBD002204042F0E7F5
:102E4000002DC8D0F9E7C0464A024302F0B55C0A3B
:102E5000550A43004A001B0EC60F120EC90FFF2B66
:102E600027D0FF2A29D0002B10D0002A15D1944654
:102E70006F426F416046002815D00020002F04D11A
:102E800048424841404201231843F0BD604260413E
:102E90008446002AECD00028F2D18E4211D0704234
:102EA00001231843F1E7002FF7D0704201231843A4
:102EB000EBE70220002CE8D1D3E70220002DE4D17B
:102EC000D1E79342EBDC04DBAC42E8D80020AC4213
:102ED000DBD270427041404201231843D5E7C0461F
:102EE000F0B55F4656464D464446F0B40D1C041CF2
:102EF0008046E80F814618030F03000B3F0B83B099
:102F000084461B48009749005E00DF0F490D92463A
:102F1000760DBB4681420CD01548864210D0012068
:102F2000B14215D003B03CBC90469946A246AB4690
:102F3000F0BD009F01202743F4D10D488642EED119
:102F4000604602430120002AECD10120B142E9D1C0
:102F5000009B6345E6D1D045E4D1D94506D0002990
:102F6000E0D11C43201C441EA041DBE70020D9E730
:102F7000FF070000F0B55F4656464D464446F0B4A4
:102F8000CD0FDE0FAC461D032D0BB146374E0F03A0
:102F90004C00AB465D0080463F0B640D92466D0DC4
:102FA000B44232D0314EB54235D0002C0ED1384328
:102FB00041424141081C002D0BD0002919D1CC45BC
:102FC0002DD0654668420123184318E0002DF6D144
:102FD000281C59460A4353425341002806D1002B6E
:102FE000EDD0634658420123184308E00020002B2F
:102FF00005D14A46504250414042012318433CBC4F
:1030000090469946A246AB46F0BD3E1C0643C9D049
:1030100002204042F3E75E461643C6D0F8E7AC42D2
:1030200007DC0BDA6146484248414042012318431D
:10303000E5E76646704201231843E0E75F450AD89A
:103040000ED000205F45DAD26546684268414042B2
:1030500001231843D3E76246504201231843CEE7C9
:10306000D045F8D80020D045EED3C8E7FF070000D0
:10307000F0B556464D4644465F46F0B40D1C83B04D
:10308000041C0190E80F814618030F03000B3F0B4F
:1030900084463548009749005E00DF0F490D92468F
:1030A000760DB846814234D02F48864236D000296A
:1030B00018D0002E1FD1341C67463A435342534167
:1030C000002C1FD00020002B05D142465042504119
:1030D00040420123184303B03CBC90469946A246A7
:1030E000AB46F0BD0098044360426041041C002ED2
:1030F000E2D00028E9D1C14515D04F4678420123DE
:103100001843E8E7002BF6D04B46584201231843FA
:10311000E1E7009F02202743DDD1C5E76746022093
:103120001743D8D1C3E7B14204DD4A4650420123D8
:103130001843D0E7B14207DB00986045E4D80AD0D5
:10314000009F00206745C6D24F46784278414042F2
:1031500001231843BFE7019A5245D5D8019A0020B0
:103160005245F1D3B7E7C046FF070000014B18688E
:103170007047C0466C00002010B50023934203D076
:10318000CC5CC4540133F9E710BD031C8218934290
:1031900002D019700133FAE7704700000FB40B4BEF
:1031A00013B51C68002C05D0A369002B02D1201C8C
:1031B00000F00EFD05ABA168201C049A019300F0FD
:1031C000A1F816BC08BC04B01847C0466C0000202B
:1031D00070B5051C0E1C002804D08269002A01D19C
:1031E00000F0F6FCAC68A3891A0702D52369002B0E
:1031F00019D1281C211C00F06FFB002813D00120DE
:10320000404245E03178002B1BDAA269934211DA83
:10321000281C221C00F008FB013043425841C0B278
:103220000028ECD10136A3683278013BA360002A64
:10323000E8D10CE023681970236819780A2903D1B2
:10324000E6E722681170236801332360EAE7002B68
:1032500017DAA269934208DB22680A2313702368F5
:1032600019780A2911D1281C01E0281C0A21221CE6
:1032700000F0DAFA013043425841C0B2002806D0CB
:10328000BDE722680A2313702368013323600A20F4
:1032900070BD000008B5034B011C1868FFF798FFCC
:1032A00008BDC0466C0000200023C25C0133002A28
:1032B000FBD1581E7047936810B5013B9360002BFB
:1032C00005DA9469A34208DBCBB20A2B05D0136858
:1032D000581C10601970C8B201E000F0A5FA10BDCA
:1032E000F8B5061C0F1C141CD518AC4208D0217868
:1032F000301C3A1CFFF7DFFF0134431CF5D100E01E
:103300000020F8BDF0B59FB0061C0F1C039205937A
:10331000002804D08169002901D100F059FC754BC7
:103320009F4201D1776808E0734B9F4201D1B76893
:1033300003E0724B9F4200D1F768BB891A070AD598
:103340003B69002B07D006AD00236B6120236B7611
:103350003023AB763BE0301C391C00F0BDFA00286E
:10336000F1D001204042C2E0059A111D126805917A
:10337000002A76DB0992013423782E2B00D181E0DC
:1033800021785F48032200F0E3FC002807D05C4965
:103390002A68431A4020984010432860013421785D
:1033A000631C584806220393297600F0D1FC0028BC
:1033B00000D18AE0544B002B7ED1059B07220733B6
:1033C0009343083305936A69049953186B61039C0E
:1033D0002378002B04D10399611A029110D003E0E5
:1033E000252BF8D00134F3E7301C391C039A029BDB
:1033F000FFF776FF013075D06A69029953186B6147
:103400002378002B6ED0012252426A606A46002364
:103410005B3201342B60EB60AB601370AB652178DD
:103420003A48052200F094FC002808D0374A0134BD
:10343000831A012098402B6818432860EFE72B6817
:10344000D90603D56A4620215B3211701A0703D5CD
:103450006A462B215B32117022782A2A84D0099B7C
:1034600005E05242EA60022213432B6083E7227890
:10347000303A092A04D80A214B4301349B18F6E755
:10348000099379E763782A2B09D1059B02341A1D29
:103490001B680592002B0DDA01235B420AE0013420
:1034A00000232278303A092A04D80A214B430134F8
:1034B0009B18F6E7079363E705AB0093301C291CC4
:1034C0003A1C134B00E000BF07E005AB0093301C33
:1034D000291C3A1C0E4B00F091F80490049901311C
:1034E00000D070E7BB895A0600D53AE70B981FB0A9
:1034F000F0BDC0466043000080430000A0430000D0
:103500003243000036430000000000002C4300005E
:10351000E1320000F7B5151C01930A698B68061C9F
:103520000C1C934200DA131C221C2B6043321278CD
:10353000002A01D001332B602068800602D52B6859
:1035400002332B60216806270F401FD0231C433312
:103550001B785A1E9341226892061FD5E11840310C
:103560003020C870211C5A1C45310978A2184032FD
:103570000233D17012E0221C301C01991932012350
:10358000089FB847013011D0009F01370097E068CD
:103590002968009F431A9F42EDDBD7E7221C301CAD
:1035A00001994332089FB847013002D101204042BF
:1035B00023E0206806212B68E268014000250429E9
:1035C00003D1D51AEB43DB171D40A26823699A4249
:1035D00001DDD31AED1800270097009FAF420BDAE8
:1035E000221C301C01991A320123089FB847013070
:1035F000DCD0009F0137EFE70020FEBDF0B50D1CC9
:103600008BB0433506920590079304950B7E0C1CF6
:10361000109A6E2B00D1A7E011D8632B22D009D8C5
:10362000002B00D1B0E0582B00D0C0E045310B702A
:103630007B4D4EE0642B1CD0692B1AD0B7E0732B66
:1036400000D1A5E009D86F2B29D0702B00D0AEE0B7
:103650000E68202333430B6036E0752B1FD0782B88
:1036600032D0A4E013680D1C191D423511601B688F
:103670009FE0216813680E0603D5191D11601E68AE
:1036800005E04806F9D5191D116000215E5E644B06
:10369000002E3BDA049D2D2276422A7036E0216806
:1036A00013680E0603D5191D11601E6804E0480654
:1036B000F9D5191D1E881160594B227E03930827E6
:1036C0006F2A1ED00A271CE0231C78214533554D54
:1036D000197011682368081D039510601E0601D536
:1036E0000E6802E05806FBD50E88D90702D52022C5
:1036F000134323601027002E03D1226820239A430E
:103700002260231C002243331A7001E003930A272E
:103710006368A360002B03DB2568042295432560C2
:10372000002E02D1049D002B0ED0049D301C391CAC
:10373000FDF742FF0398013D435C301C2B70391CA0
:10374000FDF7F6FE061EF1D1082F09D12168C90741
:1037500006D5626823699A4202DC013D30232B7052
:10376000049E731B23612AE00868136849690506F3
:1037700004D5181D10601B68196005E04606F8D5D1
:10378000181D10601B68198000232361049D16E03A
:103790001368191D11601D68281CFFF785FD6368FB
:1037A0002061984200D923612069606004E0251CF3
:1037B00042352B7001232361049E00233370079E42
:1037C00005980096211C09AA069BFFF7A3FE01306D
:1037D00002D10120404221E02A1C05980699236964
:1037E000079DA8470130F4D02668B60705D4099B89
:1037F000E068984212DA181C10E00025E068099988
:10380000431A9D42F3DA221C0598069919320123C6
:10381000079EB0470130DCD00135EFE70BB0F0BDBB
:103820003D4300004E43000070B5051C0E1C141CE7
:10383000002804D08269002A01D100F0C9F9234B85
:103840009C4201D16C6808E0214B9C4201D1AC68DC
:1038500003E0204B9C4200D1EC68A369A360A389DC
:103860001A070AD52369002B07D022682369F6B20C
:10387000D01A626990420FDB08E0281C211C00F07E
:103880002BF80028F1D0012040421DE0281C211C0B
:1038900000F01EF90028F6D1A3680130013BA360B7
:1038A00023685A1C22601E706369984205D0A38960
:1038B000301CDA0708D50A2E06D1281C211C00F07E
:1038C00007F90028DFD1301C70BDC04660430000FE
:1038D00080430000A0430000344B70B51D68061CF7
:1038E0000C1C002D05D0A969002902D1281C00F06C
:1038F0006FF92F4B9C4201D16C6808E02D4B9C4224
:1039000001D1AC6803E02C4B9C4200D1EC68A28949
:1039100093B2190721D4D90605D409233360402373
:103920001A43A2813FE05A0713D5616B002908D0E2
:10393000231C4433994202D0301C00F015FA0023B6
:103940006363A38924229343A381002363602369D3
:103950002360A38908221343A381216900290BD185
:10396000A389A02292001A4080239B009A4203D090
:10397000301C211C00F09CF9A38901221A4005D0BB
:1039800061690022A2604A42A26103E0990700D463
:103990006269A26022690020824206D1190604D51C
:1039A00040221343A3810120404270BD6C000020DF
:1039B0006043000080430000A0430000F7B58B89FE
:1039C000051C0C1C19075ED46268002A02DC276CF7
:1039D000002F1ADDE76A002F17D000222E682A6018
:1039E000802252011A4001D0626D15E0281C216A24
:1039F0000123B847021C411C0ED12B68002B0BD0B1
:103A00001D2B01D0162B02D12E6000205EE0A38971
:103A100040210B43A38159E0A3895F0706D5616864
:103A2000636B521A002B01D0276CD21B281C216A11
:103A30000023E76AB847A289411C06D12B68002BF6
:103A400003D01D2B01D0162B19D1002363602369ED
:103A50002360D70405D5411C02D12A68002A00D171
:103A60006065616B2E600029CFD0231C44339942DE
:103A700002D0281C00F078F90020606326E0402383
:103A80001A43A28122E02669002EBED027680022B8
:103A9000BF1B01972660990700D16269A260019F50
:103AA000002FB2DD281C216A321C019BA76AB8478F
:103AB000002806DCA389402213430120A381404251
:103AC00004E0019F36183F1A0197E8E7FEBD0000A9
:103AD0000A6938B5051C0C1C002A01D100201CE025
:103AE000002804D08369002B01D100F071F80B4B42
:103AF0009C4201D16C6808E0094B9C4201D1AC6842
:103B000003E0084B9C4200D1EC680C22A35E002B22
:103B1000E4D0281C211CFFF751FF38BD6043000092
:103B200080430000A0430000F8B5041C071C483483
:103B3000002C12D0A5686668013E0CD4AB89012B1D
:103B400007D90E22AB5E013303D0381C291CFFF7C6
:103B5000BFFF6835F0E72468EAE7F8BD002310B539
:103B6000041C03604360836081814366C2810361FA
:103B700043618361191C08225C30FFF706FB054B8B
:103B800024626362044BA362044BE362044B23632D
:103B900010BDC046C53E0000ED3E0000253F0000C0
:103BA000513F000070B54B1E68255D430E1C291C5B
:103BB000743100F021F9041E08D000210160466034
:103BC0002A1C0C30A0606832FFF7DFFA201C70BDA1
:103BD000836913B5041C002B27D18364C364036578
:103BE000124B134A1B688262984201D10123836100
:103BF000201C00F01FF86060201C00F01BF8A06083
:103C0000201C00F017F80421E06000226068FFF734
:103C1000A5FFA06809210122FFF7A0FFE06812219B
:103C20000222FFF79BFF0123A36113BD284300007D
:103C3000293B0000F8B51D4B071C1E68B269002A1D
:103C400002D1301CFFF7C4FF4836B4687368013BEB
:103C500005D40C22A55E002D10D06834F7E7336838
:103C6000002B06D1381C0421FFF79CFF3060002890
:103C700001D03668E9E70C233B6016E001235B4284
:103C8000E381201C0123A38165662560A560656032
:103C900025616561A5615C30291C0822FFF775FA72
:103CA0006563A563A564E564201CF8BD2843000096
:103CB000F0B58B8991B0051C0C1C9A0725D40E23F6
:103CC000C95E002906DAA78980231F400FD000278C
:103CD00040260EE001AA00F067F90028F3DB029B02
:103CE000F0273F02184A1F40BF187B425F418026E1
:103CF000F600281C311C00F07FF800280CD1A389A5
:103D00009A051FD402221343A381231C4733236047
:103D100023610123636115E00C4B8022AB62A38910
:103D200020601343A38120616661002F0AD00E2317
:103D3000E15E281C00F04AF9002803D0A389012283
:103D40001343A38111B0F0BD00E0FFFF293B000049
:103D5000C9B28218904204D003788B4202D001305D
:103D6000F8E700207047000030B5002940D0043942
:103D70000B68002B00DAC9181E4A1368141C002BAC
:103D800002D14B60116033E099420FD208680A18E3
:103D90009A4205D113685268C01808604A6000E072
:103DA0004B60216024E08A4203D8131C5A68002A21
:103DB000F9D11D685C198C420BD109686918581833
:103DC0001960904214D114685268091919605A6038
:103DD0000EE08C4202D90C23036009E008680C183D
:103DE000944203D114685268001908604A6059600F
:103DF00030BDC046BC00002070B50323CD1C9D43E0
:103E00000835061C0C2D01D20C2501E0002D3FDBEE
:103E10008D423DD3204B1C681A1C211C002913D055
:103E20000868431B0DD40B2B02D90B60CC181EE085
:103E30008C4202D1636813601AE0486860600C1C11
:103E400016E00C1C4968E9E7144C2068002803D1EF
:103E5000301C00F025F82060301C291C00F020F8F0
:103E6000431C15D0C41C03239C4384420AD1256003
:103E7000201C0B300722231D9043C31A0BD05A423B
:103E8000E25008E0211A301C00F00AF80130EED1AF
:103E90000C233360002070BDBC000020B80000205F
:103EA00038B5074C0023051C081C2360FCF7F0FA0A
:103EB000431C03D12368002B00D02B6038BDC046C3
:103EC000C008002038B50C1C0E25495F00F0A4F88E
:103ED000002803DB626D1318636503E0A289024BBF
:103EE0001340A38138BDC046FFEFFFFFF8B51E1C8D
:103EF0008B89051C0C1C171CDA0505D50E23C95E21
:103F00000022022300F074F8A289054B281C1340FC
:103F1000A3810E22A15E331C3A1C00F01FF8F8BDED
:103F2000FFEFFFFF38B50C1C0E25495F00F060F86D
:103F3000A389421C03D1054A1340A38104E08022D7
:103F400052011343A381606538BDC046FFEFFFFFF8
:103F500008B50E23C95E00F015F808BD38B5084C49
:103F6000051C00202060081C111C1A1CFCF72EFAEE
:103F7000431C03D12368002B00D02B6038BDC04602
:103F8000C008002038B5074C0023051C081C23601E
:103F9000FCF7A8FA431C03D12368002B00D02B6048
:103FA00038BDC046C008002038B5074C0023051CAA
:103FB000081C111C2360FCF79DFA431C03D12368E5
:103FC000002B00D02B6038BDC008002038B5074C4E
:103FD0000023051C081C2360FCF794FA431C03D142
:103FE0002368002B00D02B6038BDC046C0080020DD
:103FF00038B5084C051C00202060081C111C1A1C38
:10400000FCF788FA431C03D12368002B00D02B60F7
:1040100038BDC046C008002038B5084C051C00203B
:104020002060081C111C1A1CFCF77CFA431C03D1ED
:104030002368002B00D02B6038BDC046C00800208C
:104040000008DC0102030000C0A80064C0A8000151
:10405000FFFFFF00080808084D41433A2025303291
:10406000583A253032583A253032583A25303258AD
:104070003A253032583A253032580D0A00000000F7
:1040800049503A2025642E25642E25642E25640D82
:104090000A00000047573A2025642E25642E256427
:1040A0002E25640D0A000000534E3A2025642E256B
:1040B000642E25642E25640D0A000000444E533AF8
:1040C0002025642E25642E25642E25640D0A00000B
:1040D00053756363657373004661696C000000008B
:1040E0004F6E00004F6666005737353030782053EA
:1040F00074616E6461726420506572697068657283
:10410000616C204C696272617279207665727369A4
:104110006F6E203A2025642E25642E25640D0A003A
:10412000536F75726365436C6F636B203A2025642F
:104130000D0A000053797374656D436C6F636B20D7
:104140003A2025640D0A000050485920496E6974D0
:10415000203A2025730D0A004C696E6B203A202509
:10416000730D0A0053797374656D204C6F6F702066
:1041700053746172740D0000E00C0000EA0C000042
:10418000F40C0000FC0C0000060D0000100D0000F7
:1041900025643A436F6E6E6563746564202D202537
:1041A000642E25642E25642E2564203A2025640D76
:1041B0000A00000025643A536F636B657420436CFA
:1041C0006F7365640D0A000025643A4C6973746569
:1041D0006E2C2054435020736572766572206C6F8C
:1041E0006F706261636B2C20706F7274205B25644A
:1041F0005D0D0A0025643A436F6E6E6563746564F5
:1042000020746F202D2025642E25642E25642E25F4
:1042100064203A2025640D0A0000000025643A5409
:10422000727920746F20636F6E6E65637420746F93
:10423000207468652025642E25642E25642E25644F
:10424000203A2025640D0A0025643A2072656376C1
:1042500066726F6D206572726F722E20256C640D10
:104260000A00000025643A2073656E64746F20654F
:1042700072726F722E20256C640D0A0025643A4F0D
:1042800070656E65642C20554450206C6F6F7062B1
:1042900061636B2C20706F7274205B25645D0D0A66
:1042A000000000008C1700003E1700006C17000093
:1042B000C61600006C170000621700006C170000A3
:1042C000C61600003E1700003E17000062170000EF
:1042D000C6160000BE160000BE160000BE16000086
:1042E00072170000B4190000AE190000AE190000EA
:1042F000A419000004190000041900009A19000014
:10430000A4190000041900009A1900000419000003
:10431000A41900000219000002190000021900008F
:104320003C1A0000430000000C000020232D302B1D
:104330002000686C4C0065666745464700303132A6
:1043400033343536373839414243444546003031FD
:10435000323334353637383961626364656600005C
:10436000000000000000000000000000000000004D
:10437000000000000000000000000000000000003D
:10438000000000000000000000000000000000002D
:10439000000000000000000000000000000000001D
:1043A000000000000000000000000000000000000D
:1043B00000000000000000000000000000000000FD
:1043C000780000200000000000C000000000000095
:1043D0006043000080430000A04300000000000094
:1043E0000000000000000000000000002443000066
:1043F00000000000000000000000000000000000BD
:1044000000000000000000000000000000000000AC
:10441000000000000000000000000000000000009C
:104420000000000000000000000000000C00002060
:04000003000000A950
:00000001FF
